:1000000060C0000079C0000077C0000075C000002B
:1000100073C0000071C000006FC000006DC0000020
:100020006BC0000069C0000067C0000065C0000030
:1000300063C0000061C000005FC000005DC0000040
:10004000DAC0000059C0000057C0000055C00000D1
:1000500053C0000051C000004FC000004DC0000060
:100060004BC0000049C00000000000080002010071
:100070000003040700000000000000000102040863
:100080001020408001020408102001020408102002
:10009000040404040404040402020202020203032E
:1000A00003030303000000002300260029000000D2
:1000B0000000250028002B0000000000240027007D
:1000C0002A0011241FBECFEFD8E0DEBFCDBF11E064
:1000D000A0E0B1E0E4EFF4E002C005900D92A4309E
:1000E000B107D9F721E0A4E0B1E001C01D92A5312C
:1000F000B207E1F7CBD1FCC183CF61E086E02CD120
:1001000062E083E029C10F931F93CF9383E097D1DF
:10011000C1E0009709F4C0E020910001211571F1C0
:10012000892B61F5B0D08B019C01809104019091E5
:100130000501A0910601B0910701A801B901481B72
:10014000590B6A0B7B0BCA01DB01883C9105A105A9
:10015000B105A0F08091010190910201019663E048
:1001600070E09FD1809301019093020100930401FC
:10017000109305012093060130930701C0930001FD
:1001800080910101909102018130910561F18230ED
:10019000910579F1892B19F576D00091080110911C
:1001A000090120910A0130910B01601B710B820B38
:1001B000930B643F71408105910588F086E03FD143
:1001C00061E0892B09F060E086E000D15CD06093AB
:1001D00008017093090180930A0190930B01CF915C
:1001E0001F910F91089561E086E0CF911F910F91CB
:1001F000EDC060E0F9CF1F921FB61F9211242F931C
:100200003F938F939F93AF93BF9380910D019091F4
:100210000E01A0910F01B091100130910C0123E06B
:10022000230F2D3750F50196A11DB11D20930C0110
:1002300080930D0190930E01A0930F01B0931001D4
:100240008091110190911201A0911301B0911401BC
:100250000196A11DB11D8093110190931201A093ED
:100260001301B0931401BF91AF919F918F913F9172
:100270002F911F901FBE1F90189526E8230F0296FE
:10028000A11DB11DD3CF2FB7F89460910D017091CE
:100290000E0180910F01909110012FBF0895789465
:1002A00084B5826084BD84B5816084BD85B582607B
:1002B00085BD85B5816085BDEEE6F0E08081816019
:1002C0008083E1E810828081826080838081816008
:1002D0008083E0E8808181608083E1EB80818460BD
:1002E0008083E0EB808181608083EAE780818460A5
:1002F000808380818260808380818160808380812F
:10030000806880831092C1000895843081F050F499
:100310008230A9F0833079F4809180008F778093C8
:1003200080000895873071F0883091F008958091B1
:1003300080008F7DF4CF84B58F7784BD089584B518
:100340008F7DFBCF8091B0008F778093B0000895B0
:100350008091B0008F7DF9CFCF93DF9390E0FC01C7
:10036000E458FF4F249180579F4FFC0184918115E1
:10037000C9F090E0880F991FFC01E854FF4FA59148
:10038000B591FC01E255FF4FC591D5919FB7611121
:100390000CC0F8948C91209582238C93888128231B
:1003A00028839FBFDF91CF910895623051F4F89474
:1003B0003C91822F809583238C938881822B888324
:1003C000F0CFF8948C91822B8C93EBCFCF93DF936B
:1003D00000D00F92CDB7DEB76983282F30E0F90146
:1003E000E859FF4F8491F901E458FF4F94919B83A2
:1003F000F901E057FF4F24912A832115B1F08111B3
:1004000084DF8A81E82FF0E0EE0FFF1FE255FF4FF7
:10041000A591B5919FB7F89429818C9121110BC0BA
:100420002B81209528232C939FBF0F900F900F9026
:10043000DF91CF9108952B81822B8C93F5CFCF93B1
:10044000DF93282F30E0F901E859FF4F8491F9013B
:10045000E458FF4FD491F901E057FF4FC491C11503
:1004600079F0811152DFEC2FF0E0EE0FFF1FEC5519
:10047000FF4FA591B591EC91ED2381E0E11101C011
:1004800080E090E0DF91CF910895089508DFFDDFCF
:1004900034DEC0E0D0E037DE2097E9F30E940000B0
:1004A000FACF97FB072E16F4009406D077FD08D0FC
:1004B0000BD007FC05D03EF4909581959F4F089591
:1004C000709561957F4F0895AA1BBB1B51E107C032
:1004D000AA1FBB1FA617B70710F0A61BB70B881FD4
:1004E000991F5A95A9F780959095BC01CD01089563
:0404F000F894FFCFAE
:0404F40001FFFF0005
:00000001FF
